:0300000002007784
:0C007700787FE4F6D8FD75810B020003D1
:10000300750801D293C294D293D292C290E508F4B8
:10001300F580E4FFFE0FBF00010EBE75F8BF30F59B
:0B0023007B007A00790812005980E28F
:100059008B098A0A890B12002E25E0120047AB0989
:0E006900AA0AA90B12002E70040412004722EE
:10002E00BB010689828A83E0225002E722BBFE02D0
:09003E00E32289828A83E4932203
:10004700BB010689828A83F0225002F722BBFE0198
:02005700F32292
:00000001FF
