:030000000201A357
:0C01A300787FE4F6D8FD75812A0201EA9D
:1003B400012500012600011E00012000011D00018D
:1003C4001F000421000000001308050A0F14191E61
:1003D40023282D32373C41464B50555A5F011B00B0
:0303E400011C00F9
:1003E800C294D293D292D291C290D2AF7589017D34
:0F03F800057F6412022F7F327E0012033A80FECF
:02022F008D2719
:10023100AB07E4FAF9F8FF7E107D0EFC1202F68F8F
:10024100248E238D228C21AF27E4FCFDFEAB24AA52
:1002510023A922A821120073E47B64FAF9F81200A1
:10026100FEAD07AC06C3E5249DFFE5239CAB07FA71
:10027100C3E49DFDE49CFCC3E49BFBE49A8C258DC7
:1002810026F51E8B2085258C85268AD28CD2A9D273
:0102910080EC
:010292002249
:10033A007C037DE812001EE4FCFDFB7A10790EF8BE
:10034A00120073C3E49FFFE49EFE74019DFDE49CCA
:10035A008F2A8E298D28F527FC78081201908F1D87
:0D036A00852A1F851D8D851F8BD28ED2AB7D
:010377002263
:03000B00020407E5
:10040700308009C280851E8C85208A32D28085255E
:050417008C85268A32ED
:03001B000202934B
:10029300C0E0C0F0C083C082C0D075D000C000C031
:0D02A30001C002C003C004C005C006C007B2
:1002B000851D8D851F8B7408251CF8E6FF7E0012B6
:1002C0000378E51B700D051CE51C6412700D751B91
:0B02D000018008151CE51C7002F51BE6
:1002DB00D007D006D005D004D003D002D001D00077
:0B02EB00D0D0D082D083D0F0D0E03221
:10037800E4FCFDAB24AA23A922A821120073E47B84
:1003880064FAF9F81200FEAD07AC06C3E5249DFF38
:10039800E5239CAB07FAC3E49DFDE49CFCC3E49B06
:0B03A800FBE49A8C258D26F51E8B20AF
:0103B3002227
:1001AF000203E8E493A3F8E493A34003F68001F27B
:1001BF0008DFF48029E493A3F85407240CC8C33351
:1001CF00C4540F4420C8834004F456800146F6DF20
:1001DF00E4800B01020408102040809003B4E47EF9
:1001EF00019360BCA3FF543F30E509541FFEE49315
:1001FF00A360010ECF54C025E060A840B8E493A3DC
:10020F00FAE493A3F8E493A3C8C582C8CAC583CA06
:10021F00F0A3C8C582C8CAC583CADFE9DEE780BEBE
:0103E7000015
:10001E00BC000BBE0029EF8DF084FFADF022E4CCC6
:10002E00F875F008EF2FFFEE33FEEC33FCEE9DEC8F
:10003E00984005FCEE9DFE0FD5F0E9E4CEFD22EDD5
:10004E00F8F5F0EE8420D21CFEADF075F008EF2F1F
:10005E00FFED33FD4007985006D5F0F222C398FD10
:05006E000FD5F0EA22AD
:10007300E88FF0A4CC8BF0A42CFCE98EF0A42CFC2C
:100083008AF0EDA42CFCEA8EF0A4CDA8F08BF0A4AA
:100093002DCC3825F0FDE98FF0A42CCD35F0FCEB09
:1000A3008EF0A4FEA9F0EB8FF0A4CFC5F02ECD39CE
:0F00B300FEE43CFCEAA42DCE35F0FDE43CFC223B
:1000C20075F008758200EF2FFFEE33FECD33CDCCF5
:1000D20033CCC58233C5829BED9AEC99E582984078
:1000E2000CF582EE9BFEED9AFDEC99FC0FD5F0D655
:1000F200E4CEFBE4CDFAE4CCF9A88222B800C1B97F
:100102000059BA002DEC8BF084CFCECDFCE5F0CBBC
:10011200F97818EF2FFFEE33FEED33FDEC33FCEBF5
:1001220033FB10D703994004EB99FB0FD8E5E4F9B0
:10013200FA227818EF2FFFEE33FEED33FDEC33FC9D
:10014200C933C910D7059BE99A4007EC9BFCE99A91
:10015200F90FD8E0E4C9FAE4CCFB2275F010EF2FD6
:10016200FFEE33FEED33FDCC33CCC833C810D707D6
:100172009BEC9AE899400AED9BFDEC9AFCE899F811
:0E0182000FD5F0DAE4CDFBE4CCFAE4C8F922A4
:1002F600C2D5E830E70FB2D5E4C39BFBE49AFAE433
:1003060099F9E498F8EC30E717B2D512032C1200ED
:10031600FEE4C39BFBE49AFAE499F9E498F88003B7
:100326001200FE30D50DE4C39FFFE49EFEE49DFD62
:04033600E49CFC2225
:10019000E8600FECC313FCED13FDEE13FEEF13FF4D
:0301A000D8F12271
:00000001FF
