:0300000002029465
:0C029400787FE4F6D8FD7581140202DBCF
:0A03B200C0F9A4B0999282F880907F
:10039C00060FFFFFFFFFFFFF020C00000408000028
:0503AC000000010E003D
:10000E00C294D293758901758CFC758A67D28CD295
:10001E00AFD2A9E50DB4E8FBE50CB403F6E4F50C9C
:10002E00F50DE50B2401F50BE4350AF50AE4350967
:10003E00F509E43508F508E47B0AFAF9F8AF0BAEDA
:10004E000AAD09AC081201F174B22BF58274033AB1
:10005E00F583E493F50FE47F0AFEFDFCAB0BAA0AD1
:10006E00A909A808C312028350057510FF8028E461
:10007E007B0AFAF9F8AF0BAE0AAD09AC081201F122
:10008E00E47B0AFAF9F81201F174B22BF5827403CB
:10009E003AF583E493F510E47F64FEFDFCAB0BAA06
:1000AE000AA909A808C312028350057511FF8028FA
:1000BE00E47B64FAF9F8AF0BAE0AAD09AC08120195
:1000CE00F1E47B0AFAF9F81201F174B22BF582749D
:1000DE00033AF583E493F511E47FE87E03FDFCAB70
:1000EE000BAA0AA909A808C312028350057512FFAC
:1000FE008029E47BE87A03F9F8AF0BAE0AAD09ACC0
:10010E00081201F1E47B0AFAF9F81201F174B22B2C
:10011E00F58274033AF583E493F512E47F107E279B
:10012E00FDFCAB0BAA0AA909A808C312028350054D
:10013E007513FF8029E47B107A27F9F8AF0BAE0A0E
:10014E00AD09AC081201F1E47B0AFAF9F81201F1DB
:10015E0074B22BF58274033AF583E493F5137FA002
:10016E007E867D017C00AB0BAA0AA909A808C312E2
:10017E00028350067514FF0200217BA07A86790156
:10018E007800AF0BAE0AAD09AC081201F1E47B0AA0
:10019E00FAF9F81201F174B22BF58274033AF58371
:0701AE00E493F514020021A7
:03000B00020320CD
:10032000C0E0C0D0758CFC758A67050DE50D7002C4
:10033000050C7580FFE50E14601D146027146031F4
:1003400014603B1460452405704DC292C291C29066
:10035000850F80050E8040C292C291D29085108098
:10036000050E8033C292D291C290851180050E8015
:1003700026C292D291D290851280050E8019D29217
:10038000C291C290851380050E800CD292C291D288
:0C03900090851480750E00D0D0D0E032B3
:1002A00002000EE493A3F8E493A34003F68001F266
:1002B00008DFF48029E493A3F85407240CC8C3335F
:1002C000C4540F4420C8834004F456800146F6DF2E
:1002D000E4800B010204081020408090039CE47E1F
:1002E000019360BCA3FF543F30E509541FFEE49323
:1002F000A360010ECF54C025E060A840B8E493A3EA
:10030000FAE493A3F8E493A3C8C582C8CAC583CA14
:10031000F0A3C8C582C8CAC583CADFE9DEE780BECC
:0103B100004B
:1001B50075F008758200EF2FFFEE33FECD33CDCC01
:1001C50033CCC58233C5829BED9AEC99E582984084
:1001D5000CF582EE9BFEED9AFDEC99FC0FD5F0D661
:1001E500E4CEFBE4CDFAE4CCF9A88222B800C1B98B
:1001F5000059BA002DEC8BF084CFCECDFCE5F0CBC9
:10020500F97818EF2FFFEE33FEED33FDEC33FCEB01
:1002150033FB10D703994004EB99FB0FD8E5E4F9BC
:10022500FA227818EF2FFFEE33FEED33FDEC33FCA9
:10023500C933C910D7059BE99A4007EC9BFCE99A9D
:10024500F90FD8E0E4C9FAE4CCFB2275F010EF2FE2
:10025500FFEE33FEED33FDCC33CCC833C810D707E2
:100265009BEC9AE899400AED9BFDEC9AFCE899F81D
:0E0275000FD5F0DAE4CDFBE4CCFAE4C8F922B0
:10028300EB9FF5F0EA9E42F0E99D42F0E89C45F0D1
:010293002248
:00000001FF
