:03000000020157A3
:0C015700787FE4F6D8FD75812002019E3F
:100350007F381203787F0C1203787F061203787FB0
:04036000010203781B
:100378008F0D12039DC290C291850D80C295D295B2
:03038800C29522F9
:0E039D00C290D291D295AF80C295EF20E7F6C4
:0103AB00222F
:100311008B098A0A890B120364AB09AA0AA90B1279
:10032100000E6013050BE50B7002050A14F91200AB
:080331000EFF12038B80E22293
:10036400ED70048F0C8005EF2440F50CE50C4480FF
:04037400FF02037809
:10038B00AE0712039DD290C2918E80C295D295C2B8
:02039B009522A9
:1001E300202020202020202020202020202020200C
:1001F30042656E204775692058696E2020202020B3
:10020300202020202020202020202020202020000B
:1002130020202020202020202020202020202020DB
:1002230053686920576F204572202020202020200A
:1002330020202020202020202020202020202000DB
:05000300C100010E0028
:1002CE00E4F508D2AF1203507F0A7E0012024330CB
:1002DE0000FDC20074E32508F9E43401FA7BFFE463
:1002EE00FDFF12031174132508F9E43402FA7BFFA3
:1002FE007D01E4FF1203110508E508642F70D0F5A7
:03030E000880CC98
:10024300E4FCFDFB7A10790EF8120027E47BE87AD0
:1002530003F9F812028AC3E49FFFE49EFE74019D32
:10026300FDE49C8F0C8E0B8D0AF509FC78081200B7
:10027300768F0F850C105389F0438901850F8C8588
:06028300108AD28CD2A902
:010289002252
:03000B00020339B4
:02033900C0E022
:10033B00850F8C85108A050EE50E64327004F50E60
:02034B00D200DE
:03034D00D0E032CB
:100163000202CEE493A3F8E493A34003F68001F2E2
:1001730008DFF48029E493A3F85407240CC8C3339D
:10018300C4540F4420C8834004F456800146F6DF6C
:10019300E4800B0102040810204080900003E47EF9
:1001A300019360BCA3FF543F30E509541FFEE49361
:1001B300A360010ECF54C025E060A840B8E493A328
:1001C300FAE493A3F8E493A3C8C582C8CAC583CA53
:1001D300F0A3C8C582C8CAC583CADFE9DEE780BE0B
:0100080000F7
:10000E00BB010689828A83E0225002E722BBFE02F0
:09001E00E32289828A83E4932223
:10002700E88FF0A4CC8BF0A42CFCE98EF0A42CFC78
:100037008AF0EDA42CFCEA8EF0A4CDA8F08BF0A4F6
:100047002DCC3825F0FDE98FF0A42CCD35F0FCEB55
:100057008EF0A4FEA9F0EB8FF0A4CFC5F02ECD391A
:0F006700FEE43CFCEAA42DCE35F0FDE43CFC2287
:10028A00C2D5E830E70FB2D5E4C39BFBE49AFAE49F
:10029A0099F9E498F8EC30E717B2D51202C01200C7
:1002AA00C5E4C39BFBE49AFAE499F9E498F880035D
:1002BA001200C530D50DE4C39FFFE49EFEE49DFD08
:0402CA00E49CFC2292
:10007600E8600FECC313FCED13FDEE13FEEF13FF68
:03008600D8F1228C
:1000890075F008758200EF2FFFEE33FECD33CDCC2E
:1000990033CCC58233C5829BED9AEC99E5829840B1
:1000A9000CF582EE9BFEED9AFDEC99FC0FD5F0D68E
:1000B900E4CEFBE4CDFAE4CCF9A88222B800C1B9B8
:1000C9000059BA002DEC8BF084CFCECDFCE5F0CBF6
:1000D900F97818EF2FFFEE33FEED33FDEC33FCEB2F
:1000E90033FB10D703994004EB99FB0FD8E5E4F9EA
:1000F900FA227818EF2FFFEE33FEED33FDEC33FCD7
:10010900C933C910D7059BE99A4007EC9BFCE99ACA
:10011900F90FD8E0E4C9FAE4CCFB2275F010EF2F0F
:10012900FFEE33FEED33FDCC33CCC833C810D7070F
:100139009BEC9AE899400AED9BFDEC9AFCE899F84A
:0E0149000FD5F0DAE4CDFBE4CCFAE4C8F922DD
:00000001FF
