:0300000002015C9E
:0C015C00787FE4F6D8FD758114020003E2
:100003001200DF7F5012014C750830750958750ACC
:1000130035750B30750C3AEF2430F50DE4F50EFB16
:100023007A007908FDFF1200897F6612014C75087A
:1000330030750958750A36750B36750C3AEF24304E
:10004300F50DE4F50EFB7A0079087D01FF020089C6
:10013B00D2B7D2B600000000C2B600000000C2B7B2
:01014B002291
:100053007D80EDFB601CEB5F7004C2B68002D2B6FC
:1000630000000000D2B700000000C2B7EDC313FDCB
:1000730080E0D2B600000000D2B7A2B6E433FF009E
:05008300000000C2B7FF
:010088002255
:1000CA00C2B7C2B600000000D2B700000000D2B624
:0500DA000000000022FF
:10014C0012013BEF25E0FFE433FE1200530200CA1C
:1000F300C290D2917580FFD295AF80C295EF20E771
:01010300F605
:0101040022D8
:10010500AE071200F3C290C2918E80C295D295C2FD
:02011500952231
:1000DF007F381201057F0C1201057F061201057F83
:0400EF000102010504
:10011700ED7004AC078004EF2440FCEC4480FF0240
:020127000105D0
:10012900AE071200F3D290C2918E80C295D295C2C9
:0201390095220D
:100089008B128A138914120117AB12AA13A914121D
:1000990000B160130514E5147002051314F9120078
:0800A900B1FF12012980E222DF
:1000B100BB010689828A83E0225002E722BBFE024D
:0900C100E32289828A83E4932280
:00000001FF
