:030000000201EB0F
:0C01EB00787FE4F6D8FD75811402023222
:0A031000C0F9A4B0999282F8809021
:1002FA00060FFFFFFFFFFFFF02080000040A0000CD
:05030A000000010E00DF
:1002D800C294D293758901758CFC758A67D28C306B
:1002E8008D0BC28D758CFC758A671200031202771C
:0202F80080ED97
:100003000509E5097002050864E87004E50864035E
:10001300600302011CF508F509E50D2401F50DE463
:10002300350CF50CE4350BF50BE4350AF50AE47BE6
:100033000AFAF9F8AF0DAE0CAD0BAC0A1201597404
:10004300102BF58274033AF583E493F50FE47B0AEE
:10005300FAF9F8AF0DAE0CAD0BAC0A120159E47B03
:100063000AFAF9F812015974102BF58274033AF560
:1000730083E493F510E47B64FAF9F8AF0DAE0CADAD
:100083000BAC0A120159E47B0AFAF9F8120159740C
:10009300102BF58274033AF583E493F511E47BE8BE
:1000A3007A03F9F8AF0DAE0CAD0BAC0A120159E4AB
:1000B3007B0AFAF9F812015974102BF58274033A8A
:1000C300F583E493F512E47B107A27F9F8AF0DAECC
:1000D3000CAD0BAC0A120159E47B0AFAF9F81201D0
:1000E3005974102BF58274033AF583E493F5137B6B
:1000F300A07A8679017800AF0DAE0CAD0BAC0A1275
:100103000159E47B0AFAF9F812015974102BF582AC
:0901130074033AF583E493F5143A
:01011C0022C0
:100277007580FFE50E14601C14602514602E146051
:100287003714604024057048C292C291C290850F0E
:1002970080050E22C292C291D290851080050E224F
:1002A700C292D291C290851180050E22C292D2913C
:1002B700D290851280050E22D292C291C2908513E8
:1002C70080050E22D292C291D290851480E4F50E59
:0102D7002204
:1001F7000202D8E493A3F8E493A34003F68001F244
:1002070008DFF48029E493A3F85407240CC8C33308
:10021700C4540F4420C8834004F456800146F6DFD7
:10022700E4800B01020408102040809002FAE47E6B
:10023700019360BCA3FF543F30E509541FFEE493CC
:10024700A360010ECF54C025E060A840B8E493A393
:10025700FAE493A3F8E493A3C8C582C8CAC583CABE
:10026700F0A3C8C582C8CAC583CADFE9DEE780BE76
:01030F0000ED
:10011D0075F008758200EF2FFFEE33FECD33CDCC99
:10012D0033CCC58233C5829BED9AEC99E58298401C
:10013D000CF582EE9BFEED9AFDEC99FC0FD5F0D6F9
:10014D00E4CEFBE4CDFAE4CCF9A88222B800C1B923
:10015D000059BA002DEC8BF084CFCECDFCE5F0CB61
:10016D00F97818EF2FFFEE33FEED33FDEC33FCEB9A
:10017D0033FB10D703994004EB99FB0FD8E5E4F955
:10018D00FA227818EF2FFFEE33FEED33FDEC33FC42
:10019D00C933C910D7059BE99A4007EC9BFCE99A36
:1001AD00F90FD8E0E4C9FAE4CCFB2275F010EF2F7B
:1001BD00FFEE33FEED33FDCC33CCC833C810D7077B
:1001CD009BEC9AE899400AED9BFDEC9AFCE899F8B6
:0E01DD000FD5F0DAE4CDFBE4CCFAE4C8F92249
:00000001FF
