:030000000200DC1F
:0C00DC00787FE4F6D8FD75812002012336
:0C028E00C101C102C100010900010A0009
:10022C00D2AF7F807E2512026520B0FD12024A30CB
:0E023C0001FDE50904FF12027E2002ED80FBA9
:10026500758902AB07AA06E4F9F8FF7E107D0EFC3E
:090275001201E8EFF404F58C22FB
:10024A00AF8CC3E49FFF74019400C313EF13F4044B
:0B025A00F58AD28CD2A9C201C200229A
:10027E008F0A858C8AD28CD2A9C2B1C202D2002238
:03000B0002016887
:0B016800C0E0C0D075D000C006C0078A
:100173003000300508AF087E00D3EF9408748094F4
:1001830080500DE50A1392B1E50AC313F50A804CBA
:10019300EF64094E7004D2B18042750800C28CD25C
:1001A300028039AF087E00EF700D20B006F5090517
:1001B300088029C28C8025D3EF9408EE6480948054
:1001C3005010E509C313F50930B00343098005084E
:0C01D300800A750800C28C30B002D20116
:0901DF00D007D006D0D0D0E032E8
:1000E80002022CE493A3F8E493A34003F68001F200
:1000F80008DFF48029E493A3F85407240CC8C33319
:10010800C4540F4420C8834004F456800146F6DFE7
:10011800E4800B010204081020408090028EE47EE7
:10012800019360BCA3FF543F30E509541FFEE493DC
:10013800A360010ECF54C025E060A840B8E493A3A3
:10014800FAE493A3F8E493A3C8C582C8CAC583CACE
:10015800F0A3C8C582C8CAC583CADFE9DEE780BE86
:01029A000063
:1001E800C2D5E830E70FB2D5E4C39BFBE49AFAE442
:1001F80099F9E498F8EC30E717B2D512021E12000C
:100208004AE4C39BFBE49AFAE499F9E498F880037A
:1002180012004A30D50DE4C39FFFE49EFEE49DFD25
:04022800E49CFC2234
:10000E0075F008758200EF2FFFEE33FECD33CDCCA9
:10001E0033CCC58233C5829BED9AEC99E58298402C
:10002E000CF582EE9BFEED9AFDEC99FC0FD5F0D609
:10003E00E4CEFBE4CDFAE4CCF9A88222B800C1B933
:10004E000059BA002DEC8BF084CFCECDFCE5F0CB71
:10005E00F97818EF2FFFEE33FEED33FDEC33FCEBAA
:10006E0033FB10D703994004EB99FB0FD8E5E4F965
:10007E00FA227818EF2FFFEE33FEED33FDEC33FC52
:10008E00C933C910D7059BE99A4007EC9BFCE99A46
:10009E00F90FD8E0E4C9FAE4CCFB2275F010EF2F8B
:1000AE00FFEE33FEED33FDCC33CCC833C810D7078B
:1000BE009BEC9AE899400AED9BFDEC9AFCE899F8C6
:0E00CE000FD5F0DAE4CDFBE4CCFAE4C8F92259
:00000001FF
