:0300000002021FDA
:0C021F00787FE4F6D8FD758119020266B4
:10040200C0F9A4B0999282F880908883C6A1868EA2
:0B041200060BFFFFFFFFFFFF010800CB
:10036000D2AFD293C294D2B97F011202AB12042150
:10037000E511640170FAF511E514540F900402932D
:10038000F50BE514C4540F93F50CE512540F93F5D7
:0B0390000FE512C4540F93F51080D548
:1002AB0075190075181075170E751600E4FCFDFE18
:1002BB00AB19AA18A917A816120016E47BE87A0343
:1002CB00F9F81200A18F198E188D178C16C3E495AF
:1002DB0019F519E49518F51874019517F517E495A8
:1002EB0016F516AF19AE18AD17FC78081201338F3F
:1002FB000985190A5389F043890185098C850A8A76
:04030B00D28CD2A915
:01030F0022CB
:10031000E50814601414601714601A14601F146048
:100320002D2405703AC2928016C292C291800AC2F0
:1003300092D291800CC292D291D2908006D292C277
:1003400091C290740B2508F8E6F580050822D29238
:0F035000C291D290740B2508F8E6F580E4F50809
:01035F00227B
:03000B000203E904
:1003E900C0E0C0D075D000C00085098C850A8A128A
:0903F9000310D000D0D0D0E03296
:03041D00011100CA
:0F04210053890F438910C28EC2ABD28AD2AA224E
:10039B00E4F58DF58BD28E20B30CAF8DC3EF94DCCF
:1003AB007480948040F1C28EAF8DEFFEAD8B7C00DC
:0703BB00E42DFFEC3EFE22E1
:1003C200E4F58DF58BD28E30B30CAF8DC3EF94DC98
:1003D2007480948040F1C28EAF8DEFFEAD8B7C00B5
:0703E200E42DFFEC3EFE22BA
:03001300020146A1
:10014600C0E0C0D075D000C000C001C002C003C06E
:0701560004C005C006C0074C
:10015D0012039BC3EF9499EE941E4009D3EF943391
:10016D00EE94224005C28B02020A1203C2C3EF9421
:10017D0066EE940E4009D3EF9400EE94124004C243
:10018D008B807AE4FBEBC39404748094805069E413
:10019D00FAEAC3940874809480505412039BC3EF01
:1001AD009402EE94014009D3EF9406EE94034004BB
:1001BD00C28B80491203C2D3EF9402EE9401400E1C
:1001CD00EF9406EE94035006E9C313F9801ED3EFA6
:1001DD00949AEE94034011EF947FEE94085009E940
:1001ED00C313F94301808004C28B80110A80A2746D
:0D01FD00122BF8A6010B808D751101C28B2D
:10020A00D007D006D005D004D003D002D001D00048
:05021A00D0D0D0E0325D
:10022B00020360E493A3F8E493A34003F68001F286
:10023B0008DFF48029E493A3F85407240CC8C333D4
:10024B00C4540F4420C8834004F456800146F6DFA3
:10025B00E4800B0102040810204080900412E47E1D
:10026B00019360BCA3FF543F30E509541FFEE49398
:10027B00A360010ECF54C025E060A840B8E493A35F
:10028B00FAE493A3F8E493A3C8C582C8CAC583CA8A
:10029B00F0A3C8C582C8CAC583CADFE9DEE780BE42
:0104200000DB
:10001600E88FF0A4CC8BF0A42CFCE98EF0A42CFC89
:100026008AF0EDA42CFCEA8EF0A4CDA8F08BF0A407
:100036002DCC3825F0FDE98FF0A42CCD35F0FCEB66
:100046008EF0A4FEA9F0EB8FF0A4CFC5F02ECD392B
:0F005600FEE43CFCEAA42DCE35F0FDE43CFC2298
:1000650075F008758200EF2FFFEE33FECD33CDCC52
:1000750033CCC58233C5829BED9AEC99E5829840D5
:100085000CF582EE9BFEED9AFDEC99FC0FD5F0D6B2
:10009500E4CEFBE4CDFAE4CCF9A88222B800C1B9DC
:1000A5000059BA002DEC8BF084CFCECDFCE5F0CB1A
:1000B500F97818EF2FFFEE33FEED33FDEC33FCEB53
:1000C50033FB10D703994004EB99FB0FD8E5E4F90E
:1000D500FA227818EF2FFFEE33FEED33FDEC33FCFB
:1000E500C933C910D7059BE99A4007EC9BFCE99AEF
:1000F500F90FD8E0E4C9FAE4CCFB2275F010EF2F34
:10010500FFEE33FEED33FDCC33CCC833C810D70733
:100115009BEC9AE899400AED9BFDEC9AFCE899F86E
:0E0125000FD5F0DAE4CDFBE4CCFAE4C8F92201
:10013300E8600FECC313FCED13FDEE13FEEF13FFAA
:03014300D8F122CE
:00000001FF
