:0300000002000EED
:0C000E00787FE4F6D8FD758109020055EA
:0A011100C0F9A4B0999282F8809022
:060003000109010108FFE4
:10009A007F01E4FEC294D293C292C291C290758942
:1000AA0001758CF8758ACDD28CD2AFD2A975A0F71A
:1000BA0090011193F580E5096F60FBEF700E0EEE6B
:1000CA00640A7001FEEE90011193F580AF0980E693
:03000B000200DA16
:0B00DA00C0E0C0D075D000C006C00719
:1000E500758CF8758ACDE50825E0FFA2A7E4334FA6
:1000F500F508FF7E007004F5098008EFF44E7003E3
:0301050075090178
:09010800D007D006D0D0D0E032BF
:10001A0002009AE493A3F8E493A34003F68001F262
:10002A0008DFF48029E493A3F85407240CC8C333E7
:10003A00C4540F4420C8834004F456800146F6DFB6
:10004A00E4800B0102040810204080900003E47E43
:10005A00019360BCA3FF543F30E509541FFEE493AB
:10006A00A360010ECF54C025E060A840B8E493A372
:10007A00FAE493A3F8E493A3C8C582C8CAC583CA9D
:10008A00F0A3C8C582C8CAC583CADFE9DEE780BE55
:0100090000F6
:00000001FF
