:0300000002026E8B
:0C026E00787FE4F6D8FD7581460202B5E9
:10043E007F98B0C6D9E9F5FCFFFCF5E9D9C6B098AE
:10044E007F664E38251509020002091525384E66BD
:10045E0000102030405060708090A0B0C0D0E0F00E
:10046E00FFF0E0D0C0B0A0908070605040302010FF
:10047E0000081018202830384048505860687078AE
:10048E0080889098A0A8B0B8C0C8D0D8E0E8F0F89E
:06057E00013900013A0002
:10069500D2AF7F011203787F0A7E0012049E753F58
:0C06A500FF75400475413E1202FA80FB14
:1005BE00EF640A7037AF39FEEF700D753FFF75406F
:1005CE000475413E75390122EF64014E700D753F81
:1005DE00FF75400475415E75390222EF64024E705C
:0C05EE000B753FFF75400475417EF53928
:0105FA0022DE
:1003780075450075441075430E754200E4FCFDFE9A
:10038800AB45AA44A943A84212004BE47BE87A0390
:10039800F9F81200D68F458E448D438C42C3E495FC
:1003A80045F545E49544F54474019543F543E495D2
:1003B80042F542AF45AE44AD43FC78081201688F60
:1003C8003B85453D5389F0438901853B8C853D8AB2
:0403D800D28CD2A948
:0103DC0022FE
:10049E00EF7805C333CE33CED8F9FBAA06E4F9F8CC
:1004AE00FF7E107D0EFC1204F98F458E448D438C19
:1004BE0042C3E49545F545E49544F54474019543EE
:1004CE00F543E49542F542AF45AE44AD43FC7808A2
:1004DE001201688F3C85453E53890F438910853C38
:0A04EE008D853E8BD28ED2ABD2BBBF
:0104F80022E1
:1006B1008F461206DD7F901205FB7F401205FBAFCE
:0706C100461205FB0206C80A
:03000B0002053DAE
:10053D00C0E0C0F0C083C082C0D075D000C000C084
:10054D0001C002C003C004C005C006C007853B8CB6
:10055D00853D8A12017BD007D006D005D004D0038B
:10056D00D002D001D000D0D0D082D083D0F0D0E056
:01057D00324B
:03001B000203DD00
:1003DD00C0E0C0F0C083C082C0D075D000C000C0E6
:0D03ED0001C002C003C004C005C006C00767
:1003FA00853C8D853E8BAB3FAA40A941853A8275E3
:10040A00830012001EFF1206B1053AC3E53A942092
:09041A00748094804003753A00DF
:10042300D007D006D005D004D003D002D001D0002D
:0B043300D0D0D082D083D0F0D0E032D7
:1006EE000102030A0405060C0708090B000E0F0D84
:100584001029010101010101010101010101010120
:100594000101100801010101010101010101010131
:1005A400010101010118001019FFFFFFFFFFFFFF08
:0905B400FFFFFFFFFFFFFFFFFF47
:1002FA00E4F542C3E542940474809480506FE4F5B7
:10030A0043C3E543940474809480505DE54225E03C
:10031A0025E024082543F8E6FFE54225E025E02408
:10032A00292543F8E66F603DEF6020E54225E02588
:10033A00E024EEF582E43406F583E5822543F5826E
:10034A00E43583F583E493FF1205BEE54225E025F3
:10035A00E024292543F8E6FFE54225E025E02408C4
:0D036A002543F8A6070543809805428086CC
:010377002263
:10017B00E51825E025E02419F8E625E0FFA2A4E424
:10018B00334FFFE51825E025E02419F8A607E518FD
:10019B0025E025E0241AF8E625E0FFA2A5E4334F7D
:1001AB00FFE51825E025E0241AF8A607E51825E059
:1001BB0025E0241BF8E625E0FFA2A6E4334FFFE57C
:1001CB001825E025E0241BF8A607E51825E025E017
:1001DB00241CF8E625E0FFA2A7E4334FFFE5182522
:1001EB00E025E0241CF8A607E4FFEFC39404748019
:1001FB0094805035E51825E025E024192FF8E654B6
:10020B000FFD7C00700EE51825E025E024292FF862
:10021B00E4F68012ED640F4C700CE51825E025E038
:10022B0024292FF876010F80C10518E51864047096
:10023B0002F518E51814601314601914601C2403DC
:10024B007020D2A0D2A1D2A2C2A322D2A0D2A1C28C
:10025B00A2D2A322D2A0C2A18004C2A0D2A1D2A2B8
:02026B00D2A31C
:01026D00226E
:1006DD00D2B7D2B600000000C2B600000000C2B70B
:0106ED0022EA
:1005FB007E80EE601B5F7004C2B68002D2B6000034
:10060B000000D2B700000000C2B7EEC313FE80E2B9
:10061B00D2B600000000D2B700000000A2B6E4334F
:03062B00FFC2B754
:01062E0022A9
:1006C800C2B7C2B600000000D2B700000000D2B620
:0506D8000000000022FB
:10062F00D2B67E80EE601D00000000D2B720B60566
:10063F00F452078003EE420700000000C2B7EEC37A
:10064F0013FE80E0D2B600000000D2B70000000019
:02065F00C2B720
:010661002276
:10066200D2B67E80EE601D00000000D2B720B60533
:10067200F452078003EE420700000000C2B7EEC347
:1006820013FE80E0C2B600000000D2B700000000F6
:02069200C2B7ED
:010694002243
:10027A00020695E493A3F8E493A34003F68001F2FF
:10028A0008DFF48029E493A3F85407240CC8C33385
:10029A00C4540F4420C8834004F456800146F6DF54
:1002AA00E4800B010204081020408090057EE47E61
:1002BA00019360BCA3FF543F30E509541FFEE49349
:1002CA00A360010ECF54C025E060A840B8E493A310
:1002DA00FAE493A3F8E493A3C8C582C8CAC583CA3B
:1002EA00F0A3C8C582C8CAC583CADFE9DEE780BEF3
:0105BD00003D
:10001E00BB010CE58229F582E5833AF583E0225097
:10002E0006E92582F8E622BBFE06E92582F8E222E1
:0D003E00E58229F582E5833AF583E49322FB
:10004B00E88FF0A4CC8BF0A42CFCE98EF0A42CFC54
:10005B008AF0EDA42CFCEA8EF0A4CDA8F08BF0A4D2
:10006B002DCC3825F0FDE98FF0A42CCD35F0FCEB31
:10007B008EF0A4FEA9F0EB8FF0A4CFC5F02ECD39F6
:0F008B00FEE43CFCEAA42DCE35F0FDE43CFC2263
:10009A0075F008758200EF2FFFEE33FECD33CDCC1D
:1000AA0033CCC58233C5829BED9AEC99E5829840A0
:1000BA000CF582EE9BFEED9AFDEC99FC0FD5F0D67D
:1000CA00E4CEFBE4CDFAE4CCF9A88222B800C1B9A7
:1000DA000059BA002DEC8BF084CFCECDFCE5F0CBE5
:1000EA00F97818EF2FFFEE33FEED33FDEC33FCEB1E
:1000FA0033FB10D703994004EB99FB0FD8E5E4F9D9
:10010A00FA227818EF2FFFEE33FEED33FDEC33FCC5
:10011A00C933C910D7059BE99A4007EC9BFCE99AB9
:10012A00F90FD8E0E4C9FAE4CCFB2275F010EF2FFE
:10013A00FFEE33FEED33FDCC33CCC833C810D707FE
:10014A009BEC9AE899400AED9BFDEC9AFCE899F839
:0E015A000FD5F0DAE4CDFBE4CCFAE4C8F922CC
:1004F900C2D5E830E70FB2D5E4C39BFBE49AFAE42E
:1005090099F9E498F8EC30E717B2D512052F1200E3
:10051900D6E4C39BFBE49AFAE499F9E498F88003DA
:100529001200D630D50DE4C39FFFE49EFEE49DFD85
:04053900E49CFC2220
:10016800E8600FECC313FCED13FDEE13FEEF13FF75
:03017800D8F12299
:00000001FF
