:03000000020235C4
:0C023500787FE4F6D8FD75811202018A82
:10018A00C294D293D292D291C290758901D2AF759C
:10019A000800750963AD097F647E0012012BE4FF34
:1001AA00FE0FBF00010EBE75F8BF30F5120227E53B
:1001BA0009150970021508C3E5099401E5089400B8
:0401CA0050D380CBC3
:02012B008D0A3B
:10012D00AB07AA06E4F9F8FF7E107D0EFC1201CE96
:10013D008F0E8E0D8D0C8C0BAF0AE4FCFDFEAB0EFD
:10014D00AA0DA90CA80B12000EE47B64FAF9F812A3
:10015D000099AD07AC06C3E50E9DFFE50D9CAB0701
:10016D00FAC3E49DFDE49CFCC3E49BFBE49A8C1173
:0C017D008D12F50F8B10D28CD2A9D2800D
:010189002253
:0E022700E4F511F512F50FF510C28CC2A922F4
:03000B00020212DC
:10021200308009C280850F8C85108A32D280851188
:050222008C85128A32F8
:10000E00E88FF0A4CC8BF0A42CFCE98EF0A42CFC91
:10001E008AF0EDA42CFCEA8EF0A4CDA8F08BF0A40F
:10002E002DCC3825F0FDE98FF0A42CCD35F0FCEB6E
:10003E008EF0A4FEA9F0EB8FF0A4CFC5F02ECD3933
:0F004E00FEE43CFCEAA42DCE35F0FDE43CFC22A0
:10005D0075F008758200EF2FFFEE33FECD33CDCC5A
:10006D0033CCC58233C5829BED9AEC99E5829840DD
:10007D000CF582EE9BFEED9AFDEC99FC0FD5F0D6BA
:10008D00E4CEFBE4CDFAE4CCF9A88222B800C1B9E4
:10009D000059BA002DEC8BF084CFCECDFCE5F0CB22
:1000AD00F97818EF2FFFEE33FEED33FDEC33FCEB5B
:1000BD0033FB10D703994004EB99FB0FD8E5E4F916
:1000CD00FA227818EF2FFFEE33FEED33FDEC33FC03
:1000DD00C933C910D7059BE99A4007EC9BFCE99AF7
:1000ED00F90FD8E0E4C9FAE4CCFB2275F010EF2F3C
:1000FD00FFEE33FEED33FDCC33CCC833C810D7073C
:10010D009BEC9AE899400AED9BFDEC9AFCE899F876
:0E011D000FD5F0DAE4CDFBE4CCFAE4C8F92209
:1001CE00C2D5E830E70FB2D5E4C39BFBE49AFAE45C
:1001DE0099F9E498F8EC30E717B2D5120204120040
:1001EE0099E4C39BFBE49AFAE499F9E498F8800346
:1001FE0012009930D50DE4C39FFFE49EFEE49DFDF1
:04020E00E49CFC224E
:00000001FF
