:03000000020157A3
:0C015700787FE4F6D8FD75812002019E3F
:1001E300202020202020202020202020202020200C
:1001F30043484820416E64205A594A202020202039
:10020300202020202020202020202000202020200B
:100213002020202020202020202020203230323196
:10022300202F382F2031382020202020202020206C
:080233002020202020202000E3
:05000300C100010E0028
:1002C600E4F508D2AF1203487F0A7E0012023B30E3
:1002D60000FDC20074E32508F9E43401FA7BFFE46B
:1002E600FDFF120309740F2508F9E43402FA7BFFB7
:1002F6007D01E4FF1203090508E508642C70D0F5BA
:030306000880CCA0
:10023B00E4FCFDFB7A10790EF8120027E47BE87AD8
:10024B0003F9F8120282C3E49FFFE49EFE74019D42
:10025B00FDE49C8F0C8E0B8D0AF509FC78081200BF
:10026B00768F0F850C105389F0438901850F8C8590
:06027B00108AD28CD2A90A
:01028100225A
:03000B00020331BC
:02033100C0E02A
:10033300850F8C85108A050EE50E64327004F50E68
:02034300D200E6
:03034500D0E032D3
:100348007F381203707F0C1203707F061203707FD0
:04035800010203702B
:100370008F0D120395C290C291850D80C295D295C2
:03038000C2952201
:0E039500C290D291D295AF80C295EF20E7F6CC
:0103A3002237
:100309008B098A0A890B12035CAB09AA0AA90B1289
:10031900000E6013050BE50B7002050A14F91200B3
:080329000EFF12038380E222A3
:10035C00ED70048F0C8005EF2440F50CE50C448007
:04036C00FF02037019
:10038300AE07120395D290C2918E80C295D295C2C8
:020393009522B1
:100163000202C6E493A3F8E493A34003F68001F2EA
:1001730008DFF48029E493A3F85407240CC8C3339D
:10018300C4540F4420C8834004F456800146F6DF6C
:10019300E4800B0102040810204080900003E47EF9
:1001A300019360BCA3FF543F30E509541FFEE49361
:1001B300A360010ECF54C025E060A840B8E493A328
:1001C300FAE493A3F8E493A3C8C582C8CAC583CA53
:1001D300F0A3C8C582C8CAC583CADFE9DEE780BE0B
:0100080000F7
:10000E00BB010689828A83E0225002E722BBFE02F0
:09001E00E32289828A83E4932223
:10002700E88FF0A4CC8BF0A42CFCE98EF0A42CFC78
:100037008AF0EDA42CFCEA8EF0A4CDA8F08BF0A4F6
:100047002DCC3825F0FDE98FF0A42CCD35F0FCEB55
:100057008EF0A4FEA9F0EB8FF0A4CFC5F02ECD391A
:0F006700FEE43CFCEAA42DCE35F0FDE43CFC2287
:10028200C2D5E830E70FB2D5E4C39BFBE49AFAE4A7
:1002920099F9E498F8EC30E717B2D51202B81200D7
:1002A200C5E4C39BFBE49AFAE499F9E498F8800365
:1002B2001200C530D50DE4C39FFFE49EFEE49DFD10
:0402C200E49CFC229A
:10007600E8600FECC313FCED13FDEE13FEEF13FF68
:03008600D8F1228C
:1000890075F008758200EF2FFFEE33FECD33CDCC2E
:1000990033CCC58233C5829BED9AEC99E5829840B1
:1000A9000CF582EE9BFEED9AFDEC99FC0FD5F0D68E
:1000B900E4CEFBE4CDFAE4CCF9A88222B800C1B9B8
:1000C9000059BA002DEC8BF084CFCECDFCE5F0CBF6
:1000D900F97818EF2FFFEE33FEED33FDEC33FCEB2F
:1000E90033FB10D703994004EB99FB0FD8E5E4F9EA
:1000F900FA227818EF2FFFEE33FEED33FDEC33FCD7
:10010900C933C910D7059BE99A4007EC9BFCE99ACA
:10011900F90FD8E0E4C9FAE4CCFB2275F010EF2F0F
:10012900FFEE33FEED33FDCC33CCC833C810D7070F
:100139009BEC9AE899400AED9BFDEC9AFCE899F84A
:0E0149000FD5F0DAE4CDFBE4CCFAE4C8F922DD
:00000001FF
