:0300000002026495
:0C026400787FE4F6D8FD7581300202AB13
:06000300012E00012D009A
:1001A600D2AF7F011202F0120449120435E52E6423
:1001B6000170FAF52EFB7A007909120386E50865C7
:1001C6000960EA751132751230E50FC4540F2430F8
:1001D600F513E50F540F2430F51475152DE50DC4F0
:1001E600540F2430F516E50D540F2430F517751805
:1001F6002DE50CC4540F2430F519E50C540F2430AA
:10020600F51AE4F51BFB7A007911FD7F031203B79B
:10021600E50BC4540F2430F51DE50B540F2430F5BF
:100226001E751F3AE50AC4540F2430F520E50A541A
:100236000F2430F52175223AE509C4540F2430F510
:1002460023E509540F2430F524E4F525FB7A0079DB
:0E0256001D7D017F041203B78509080201B364
:1002F000752C00752B10752A0E752900E4FCFDFE87
:10030000AB2CAA2BA92AA829120076E47BE87A0351
:10031000F9F81201018F2C8E2B8D2A8C29C3E495BC
:100320002CF52CE4952BF52B7401952AF52AE495F0
:1003300029F529AF2CAE2BAD2AFC78081201938F3A
:100340002F852C305389F0438901852F8C85308A85
:04035000D28CD2A9D0
:010354002286
:03000B000203DF0E
:0403DF00C0E0C0D0EA
:1003E300852F8C85308A052DC3E52D94C8748094A0
:0903F300804006752D00752E01F5
:0503FC00D0D0D0E0327A
:10047000C290D2917580FFD295AF80C295EF20E7F0
:01048000F685
:010481002258
:10048200AE07120470C290C2918E80C295D295C2FC
:020492009522B1
:100435007F381204827F0C1204827F061204827FA9
:04044500010204822A
:10049400ED7004AC078004EF2440FCEC4480FF02C0
:0204A4000482D0
:1004A600AE07120470D290C2918E80C295D295C2C8
:0204B60095228D
:1003B7008B298A2A892B120494AB29AA2AA92B12E2
:1003C700000E6013052BE52B7002052A14F91200A5
:0803D7000EFF1204A680E222D1
:0704C90000141128080621B0
:100401007E01EE60155F6004D2B48002C2B4C2B551
:0A041100D2B5C2B5EE25E0FE80E88A
:01041B0022BE
:10041C00E4FF7E01EE601130B4024207C2B5D2B5E2
:08042C00C2B5EE25E0FE80ECF4
:0104340022A5
:10045D00D297EF25E04480FF120401AF051204018D
:03046D00C2972211
:1004B800D297EF25E04481FF12040112041CC29771
:0104C8002211
:060355008B298A2A892B86
:10035B00D2977FBE120401E4FDEDC3940874809420
:10036B00805015AB29AA2AA92B8D82758300120008
:0A037B0027FF1204010D80E1C29774
:010385002255
:060386008B298A2A892B55
:10038C00D2977FBF120401E4FDEDC39408748094EE
:10039C0080501512041CAB29AA2AA92B8D827583B7
:0A03AC0000EF1200540D80E1C2972B
:0103B6002224
:10044900C297C2B5E4FD7F0712045D7BFF7A047988
:04045900C90203557C
:100270000201A6E493A3F8E493A34003F68001F2FD
:1002800008DFF48029E493A3F85407240CC8C3338F
:10029000C4540F4420C8834004F456800146F6DF5E
:1002A000E4800B0102040810204080900003E47EEB
:1002B000019360BCA3FF543F30E509541FFEE49353
:1002C000A360010ECF54C025E060A840B8E493A31A
:1002D000FAE493A3F8E493A3C8C582C8CAC583CA45
:1002E000F0A3C8C582C8CAC583CADFE9DEE780BEFD
:0100090000F6
:10000E00BB010689828A83E0225002E722BBFE02F0
:09001E00E32289828A83E4932223
:10002700BB010CE58229F582E5833AF583E022508E
:1000370006E92582F8E622BBFE06E92582F8E222D8
:0D004700E58229F582E5833AF583E49322F2
:10005400F8BB010DE58229F582E5833AF583E8F0E2
:10006400225006E92582C8F622BBFE05E92582C88E
:02007400F22276
:10007600E88FF0A4CC8BF0A42CFCE98EF0A42CFC29
:100086008AF0EDA42CFCEA8EF0A4CDA8F08BF0A4A7
:100096002DCC3825F0FDE98FF0A42CCD35F0FCEB06
:1000A6008EF0A4FEA9F0EB8FF0A4CFC5F02ECD39CB
:0F00B600FEE43CFCEAA42DCE35F0FDE43CFC2238
:1000C50075F008758200EF2FFFEE33FECD33CDCCF2
:1000D50033CCC58233C5829BED9AEC99E582984075
:1000E5000CF582EE9BFEED9AFDEC99FC0FD5F0D652
:1000F500E4CEFBE4CDFAE4CCF9A88222B800C1B97C
:100105000059BA002DEC8BF084CFCECDFCE5F0CBB9
:10011500F97818EF2FFFEE33FEED33FDEC33FCEBF2
:1001250033FB10D703994004EB99FB0FD8E5E4F9AD
:10013500FA227818EF2FFFEE33FEED33FDEC33FC9A
:10014500C933C910D7059BE99A4007EC9BFCE99A8E
:10015500F90FD8E0E4C9FAE4CCFB2275F010EF2FD3
:10016500FFEE33FEED33FDCC33CCC833C810D707D3
:100175009BEC9AE899400AED9BFDEC9AFCE899F80E
:0E0185000FD5F0DAE4CDFBE4CCFAE4C8F922A1
:10019300E8600FECC313FCED13FDEE13FEEF13FF4A
:0301A300D8F1226E
:00000001FF
