:030000000201C931
:0C01C900787FE4F6D8FD75811502009DDA
:10017000C290D2917580FFD295AF80C295EF20E7F3
:01018000F688
:01018100225B
:10018200AE07120170C290C2918E80C295D295C202
:020192009522B4
:10015C007F381201827F0C1201827F061201827F8E
:04016C000102018209
:10019400ED7004AC078004EF2440FCEC4480FF02C3
:0201A4000182D6
:1001A600AE07120170D290C2918E80C295D295C2CE
:0201B600952290
:1000CB008B138A148915120194AB13AA14A9151258
:1000DB00012E60130515E5157002051414F91201B4
:0800EB002EFF1201A680E222A3
:10009D0012015CE4FF1200F38F08E50875F00A8485
:1000AD00E5F02430F509E4F50AFB7A007909FDFF46
:0E00BD001200CBE50804FDE4FF12011580FEE1
:0200F3008F1369
:1000F5001201B87FA0120003AF131200031201B85A
:0F0105007FA11200031200378F14120147AF14AD
:0101140022C8
:100115008F138D141201B87FA0120003AF131200C4
:0901250003AF14120003020147AC
:1001B800D2B7D2B600000000C2B600000000C2B735
:0101C8002214
:100003007E80EE601B5F7004C2B68002D2B6000031
:100013000000D2B700000000C2B7EEC313FE80E2B7
:10002300D2B600000000D2B700000000A2B6E4334D
:03003300FFC2B752
:0100360022A7
:10014700C2B7C2B600000000D2B700000000D2B6A6
:05015700000000002281
:10003700D2B67E80EE601D00000000D2B720B60564
:10004700F452078003EE420700000000C2B7EEC378
:1000570013FE80E0D2B600000000D2B70000000017
:02006700C2B71E
:010069002274
:10006A00D2B67E80EE601D00000000D2B720B60531
:10007A00F452078003EE420700000000C2B7EEC345
:10008A0013FE80E0C2B600000000D2B700000000F4
:02009A00C2B7EB
:01009C002241
:10012E00BB010689828A83E0225002E722BBFE02CF
:09013E00E32289828A83E4932202
:00000001FF
