:03000000020156A4
:0C015600787FE4F6D8FD75811802019D49
:0A032F00C0F9A4B0999282F8809002
:10000E00060FFFFFFFFFFFFF010D00010E000108AD
:01001E0000E1
:10026E00C294D293D2AF7F011201E27F807E25121B
:10027E0003097E00E50C540F242FF582EE3403F5AE
:10028E0083E493F50FAF0CAE0BAD0AAC09780412F4
:10029E000075742F2FF58274033EF583E493F510E9
:0202AE0080D0FE
:1001E2005389F0438901E4FCFDFEFB7A10790EF895
:1001F200120026E47BE87A03F9F812022AC3E49F8C
:10020200FFE49EFE74019DFDE49C8F188E178D16EF
:10021200F515FC78081200758F0D85180E850D8C6A
:07022200850E8AD28CD2A9DF
:0102290022B2
:1003090075985053890F438920AB07AA06E4F9F879
:100319007F807E70FDFC12022AEFF404F58D858D35
:060329008BD28ED2AC2243
:030023000202DFF7
:1002DF00C0E0C0D075D000C007309812C298859981
:1002EF0099AF99E48F0CF50BF50AF5098005309954
:0A02FF0002C299D007D0D0D0E0323F
:03000B000202B03E
:0202B000C0E0AC
:1002B200850D8C850E8A7580FFE508146010047028
:1002C20019C292C291C290850F800508800CC29219
:0A02D200C291D290851080750800DB
:0302DC00D0E0323D
:1001620002026EE493A3F8E493A34003F68001F243
:1001720008DFF48029E493A3F85407240CC8C3339E
:10018200C4540F4420C8834004F456800146F6DF6D
:10019200E4800B010204081020408090000EE47EEF
:1001A200019360BCA3FF543F30E509541FFEE49362
:1001B200A360010ECF54C025E060A840B8E493A329
:1001C200FAE493A3F8E493A3C8C582C8CAC583CA54
:1001D200F0A3C8C582C8CAC583CADFE9DEE780BE0C
:01001F0000E0
:10002600E88FF0A4CC8BF0A42CFCE98EF0A42CFC79
:100036008AF0EDA42CFCEA8EF0A4CDA8F08BF0A4F7
:100046002DCC3825F0FDE98FF0A42CCD35F0FCEB56
:100056008EF0A4FEA9F0EB8FF0A4CFC5F02ECD391B
:0F006600FEE43CFCEAA42DCE35F0FDE43CFC2288
:10022A00C2D5E830E70FB2D5E4C39BFBE49AFAE4FF
:10023A0099F9E498F8EC30E717B2D5120260120087
:10024A00C4E4C39BFBE49AFAE499F9E498F88003BE
:10025A001200C430D50DE4C39FFFE49EFEE49DFD69
:04026A00E49CFC22F2
:10007500E8600FECC313FCED13FDEE13FEEF13FF69
:03008500D8F1228D
:1000880075F008758200EF2FFFEE33FECD33CDCC2F
:1000980033CCC58233C5829BED9AEC99E5829840B2
:1000A8000CF582EE9BFEED9AFDEC99FC0FD5F0D68F
:1000B800E4CEFBE4CDFAE4CCF9A88222B800C1B9B9
:1000C8000059BA002DEC8BF084CFCECDFCE5F0CBF7
:1000D800F97818EF2FFFEE33FEED33FDEC33FCEB30
:1000E80033FB10D703994004EB99FB0FD8E5E4F9EB
:1000F800FA227818EF2FFFEE33FEED33FDEC33FCD8
:10010800C933C910D7059BE99A4007EC9BFCE99ACB
:10011800F90FD8E0E4C9FAE4CCFB2275F010EF2F10
:10012800FFEE33FEED33FDCC33CCC833C810D70710
:100138009BEC9AE899400AED9BFDEC9AFCE899F84B
:0E0148000FD5F0DAE4CDFBE4CCFAE4C8F922DE
:00000001FF
