:030000000202C138
:0C02C100787FE4F6D8FD75815502030833
:10054D00C0F9A4B0999282F880908883C6A1868E56
:10055D00313233263435362537383928301B0D27BF
:1004B8000642FFFFFFFFFFFF1032010101010101AA
:1004C80001010101010101010101100801010101FE
:1004D80001010101010101010101010104180000EC
:1004E8000000041C0000000001200001210010226F
:1004F800FFFFFFFFFFFFFFFFFFFFFFFFFFFFFFFF04
:10056D00C294D293758901758CFC758A67D28CD231
:0F057D00AFD2A990054DE493F5421203D980FB4C
:1003D900E4F548C3E548940474809480506FE4F5CB
:1003E90049C3E549940474809480505DE54825E04B
:1003F90025E024082549F8E6FFE54825E025E0241D
:10040900322549F8E66F603DEF6020E54825E02593
:10041900E0245DF582E43405F583E5822549F5821A
:10042900E43583F583E493FF12021EE54825E025B0
:10043900E024322549F8E6FFE54825E025E02408CF
:0D0449002549F8A6070549809805488086DA
:010456002283
:02021E008F4A05
:100220007E00C3EF9430748094804042D3EF9439C1
:10023000748094805038E47F0AFDFCAB1BAA1AA995
:1002400019A81812000EA804A905AA06AB07E54ACA
:1002500024D0FFE434FFFE3395E0FDFCEB2FF51BCB
:10026000EA3EF51AE93DF519E83CF518804BE54AF8
:10027000642670028006E54A640D7027E51F251B81
:10028000F51FE51E351AF51EE51D3519F51DE51C92
:100290003518F51CE4F51BF51AF519F518AE1EAF67
:1002A0001F801AE54A641B7017F51BF51AF519F53E
:1002B00018F51FF51EF51DF51CAE1AAF1B12034DE8
:0102C000221B
:08034D008F4E8E4D8D4C8C4B40
:10035500E4F54FC3E54F9406748094805037E47BF1
:100365000AFAF9F8AF4EAE4DAD4CAC4B120099AF51
:10037500037450254FF8A607AF4EAE4DAD4CAC4BB0
:10038500E47B0AFAF9F81200998F4E8E4D8D4C8C4C
:100395004B054F80BE754F05D3E54F94007480948F
:1003A5008040137450254FF8E6700B7442254FF8C2
:1003B50076FF154F80E2C3748094804016745025F3
:1003C5004FF8E690054D93FF7442254FF8A60715A3
:0303D5004F80E373
:0103D8002202
:03000B00020509E2
:10050900C0E0C0F0C083C082C0D075D000C000C0B8
:1005190001C002C003C004C005C006C007758CFC39
:10052900758A6712045712012BD007D006D005D05F
:1005390004D003D002D001D000D0D0D082D083D053
:04054900F0D0E032DC
:100457007580FFE52014601C14602514602E14605D
:100467003714604024057048C292C291C29005209B
:1004770085428022C292C291D29005208543802274
:10048700C292D291C290052085448022C292D29115
:10049700D290052085458022D292C291C290052034
:1004A70085468022D292C291D290E4F5208547807A
:0104B7002222
:10012B00E52125E025E02422F8E625E0FFA2A4E462
:10013B00334FFFE52125E025E02422F8A607E52132
:10014B0025E025E02423F8E625E0FFA2A5E4334FC4
:10015B00FFE52125E025E02423F8A607E52125E08E
:10016B0025E02424F8E625E0FFA2A6E4334FFFE5C3
:10017B002125E025E02424F8A607E52125E025E04C
:10018B002425F8E625E0FFA2A7E4334FFFE5212560
:10019B00E025E02425F8A607E4FFEFC39404748060
:1001AB0094805035E52125E025E024222FF8E654F4
:1001BB000FFD7C00700EE52125E025E024322FF8A1
:1001CB00E4F68012ED640F4C700CE52125E025E080
:1001DB0024322FF876010F80C10521E521640470CC
:1001EB0002F521E52114601314601914601C24031B
:1001FB007020D2A0D2A1D2A2C2A322D2A0D2A1C2DD
:10020B00A2D2A322D2A0C2A18004C2A0D2A1D2A208
:02021B00D2A36C
:01021D0022BE
:1002CD0002056DE493A3F8E493A34003F68001F2D5
:1002DD0008DFF48029E493A3F85407240CC8C33332
:1002ED00C4540F4420C8834004F456800146F6DF01
:1002FD00E4800B01020408102040809004B8E47ED5
:10030D00019360BCA3FF543F30E509541FFEE493F5
:10031D00A360010ECF54C025E060A840B8E493A3BC
:10032D00FAE493A3F8E493A3C8C582C8CAC583CAE7
:10033D00F0A3C8C582C8CAC583CADFE9DEE780BE9F
:0105080000F2
:10000E00E88FF0A4CC8BF0A42CFCE98EF0A42CFC91
:10001E008AF0EDA42CFCEA8EF0A4CDA8F08BF0A40F
:10002E002DCC3825F0FDE98FF0A42CCD35F0FCEB6E
:10003E008EF0A4FEA9F0EB8FF0A4CFC5F02ECD3933
:0F004E00FEE43CFCEAA42DCE35F0FDE43CFC22A0
:10005D0075F008758200EF2FFFEE33FECD33CDCC5A
:10006D0033CCC58233C5829BED9AEC99E5829840DD
:10007D000CF582EE9BFEED9AFDEC99FC0FD5F0D6BA
:10008D00E4CEFBE4CDFAE4CCF9A88222B800C1B9E4
:10009D000059BA002DEC8BF084CFCECDFCE5F0CB22
:1000AD00F97818EF2FFFEE33FEED33FDEC33FCEB5B
:1000BD0033FB10D703994004EB99FB0FD8E5E4F916
:1000CD00FA227818EF2FFFEE33FEED33FDEC33FC03
:1000DD00C933C910D7059BE99A4007EC9BFCE99AF7
:1000ED00F90FD8E0E4C9FAE4CCFB2275F010EF2F3C
:1000FD00FFEE33FEED33FDCC33CCC833C810D7073C
:10010D009BEC9AE899400AED9BFDEC9AFCE899F876
:0E011D000FD5F0DAE4CDFBE4CCFAE4C8F92209
:00000001FF
