:0300000002028673
:0C028600787FE4F6D8FD75813F0202CDC0
:03043600013D0085
:0C059300D2AF7F0112039012031280FB14
:100546008F3C1205727F901204AC7F401204ACAF50
:070556003C1204AC02055D3C
:020473008F3BBD
:10047500EF640A700FD3E53D94197480948050267B
:10048500053D800FE53B640B701CC3748094804070
:1004950015153DE53D75F0FFA4FFAEF07C007D1917
:0604A50012000E120546D4
:0104AB00222E
:10039000753C00753B10753A0E753900E4FCFDFEA6
:1003A000AB3CAA3BA93AA839120063E47BE87A0384
:1003B000F9F81200EE8F3C8E3B8D3A8C39C3E495F0
:1003C0003CF53CE4953BF53B7401953AF53AE495F0
:1003D00039F539AF3CAE3BAD3AFC78081201808F5D
:1003E0003E853C3F5389F0438901853E8C853F8A99
:0403F000D28CD2A930
:0103F40022E6
:03000B000203F5F8
:1003F500C0E0C0F0C083C082C0D075D000C000C0CE
:1004050001C002C003C004C005C006C007853E8CFC
:10041500853F8A120193D007D006D005D004D003BA
:10042500D002D001D000D0D0D082D083D0F0D0E09F
:010435003294
:10057200D2B7D2B600000000C2B600000000C2B777
:010582002256
:1004AC007E80EE601B5F7004C2B68002D2B6000084
:1004BC000000D2B700000000C2B7EEC313FE80E20A
:1004CC00D2B600000000D2B700000000A2B6E433A0
:0304DC00FFC2B7A5
:0104DF0022FA
:10055D00C2B7C2B600000000D2B700000000D2B68C
:05056D00000000002267
:1004E000D2B67E80EE601D00000000D2B720B605B7
:1004F000F452078003EE420700000000C2B7EEC3CB
:1005000013FE80E0D2B600000000D2B70000000069
:02051000C2B770
:0105120022C6
:10051300D2B67E80EE601D00000000D2B720B60583
:10052300F452078003EE420700000000C2B7EEC397
:1005330013FE80E0C2B600000000D2B70000000046
:02054300C2B73D
:010545002293
:100583000102030A0405060C0708090B000E0F0DF0
:10043900102901010101010101010101010101016C
:10044900010110080101010101010101010101017D
:10045900010101010118001019FFFFFFFFFFFFFF54
:09046900FFFFFFFFFFFFFFFFFF93
:10031200E4F539C3E539940474809480506FE4F5B0
:100322003AC3E53A940474809480505DE53925E03F
:1003320025E02408253AF8E6FFE53925E025E02402
:1003420029253AF8E66F603DEF6020E53925E02582
:10035200E02483F582E43405F583E582253AF582CB
:10036200E43583F583E493FF120473E53925E02530
:10037200E02429253AF8E6FFE53925E025E02408BE
:0D038200253AF8A607053A809805398086CF
:01038F00224B
:10019300E51825E025E02419F8E625E0FFA2A4E40C
:1001A300334FFFE51825E025E02419F8A607E518E5
:1001B30025E025E0241AF8E625E0FFA2A5E4334F65
:1001C300FFE51825E025E0241AF8A607E51825E041
:1001D30025E0241BF8E625E0FFA2A6E4334FFFE564
:1001E3001825E025E0241BF8A607E51825E025E0FF
:1001F300241CF8E625E0FFA2A7E4334FFFE518250A
:10020300E025E0241CF8A607E4FFEFC39404748000
:1002130094805035E51825E025E024192FF8E6549D
:100223000FFD7C00700EE51825E025E024292FF84A
:10023300E4F68012ED640F4C700CE51825E025E020
:1002430024292FF876010F80C10518E5186404707E
:1002530002F518E51814601314601914601C2403C4
:100263007020D2A0D2A1D2A2C2A322D2A0D2A1C274
:10027300A2D2A322D2A0C2A18004C2A0D2A1D2A2A0
:02028300D2A304
:010285002256
:10029200020593E493A3F8E493A34003F68001F2EA
:1002A20008DFF48029E493A3F85407240CC8C3336D
:1002B200C4540F4420C8834004F456800146F6DF3C
:1002C200E4800B0102040810204080900436E47E92
:1002D200019360BCA3FF543F30E509541FFEE49331
:1002E200A360010ECF54C025E060A840B8E493A3F8
:1002F200FAE493A3F8E493A3C8C582C8CAC583CA23
:10030200F0A3C8C582C8CAC583CADFE9DEE780BEDA
:010472000089
:10000E00BC000BBE0029EF8DF084FFADF022E4CCD6
:10001E00F875F008EF2FFFEE33FEEC33FCEE9DEC9F
:10002E00984005FCEE9DFE0FD5F0E9E4CEFD22EDE5
:10003E00F8F5F0EE8420D21CFEADF075F008EF2F2F
:10004E00FFED33FD4007985006D5F0F222C398FD20
:05005E000FD5F0EA22BD
:10006300E88FF0A4CC8BF0A42CFCE98EF0A42CFC3C
:100073008AF0EDA42CFCEA8EF0A4CDA8F08BF0A4BA
:100083002DCC3825F0FDE98FF0A42CCD35F0FCEB19
:100093008EF0A4FEA9F0EB8FF0A4CFC5F02ECD39DE
:0F00A300FEE43CFCEAA42DCE35F0FDE43CFC224B
:1000B20075F008758200EF2FFFEE33FECD33CDCC05
:1000C20033CCC58233C5829BED9AEC99E582984088
:1000D2000CF582EE9BFEED9AFDEC99FC0FD5F0D665
:1000E200E4CEFBE4CDFAE4CCF9A88222B800C1B98F
:1000F2000059BA002DEC8BF084CFCECDFCE5F0CBCD
:10010200F97818EF2FFFEE33FEED33FDEC33FCEB05
:1001120033FB10D703994004EB99FB0FD8E5E4F9C0
:10012200FA227818EF2FFFEE33FEED33FDEC33FCAD
:10013200C933C910D7059BE99A4007EC9BFCE99AA1
:10014200F90FD8E0E4C9FAE4CCFB2275F010EF2FE6
:10015200FFEE33FEED33FDCC33CCC833C810D707E6
:100162009BEC9AE899400AED9BFDEC9AFCE899F821
:0E0172000FD5F0DAE4CDFBE4CCFAE4C8F922B4
:10018000E8600FECC313FCED13FDEE13FEEF13FF5D
:03019000D8F12281
:00000001FF
