:0300000002010DED
:0C010D00787FE4F6D8FD758137020154BC
:10028B000109000108000115000B0A312D48656CAE
:10029B006C6F210D0A000A16322D48656C6C6F21AC
:1002AB000D0A0A20332D48656C6C6F210D0A0B2A41
:0B02BB00342D48656C6C6F210D0A00AB
:10019900D2AF7F807E251202C7E50960FCE4F5092C
:1001A900E50824FE601A14602214602F240370E904
:1001B90075350075360075370A75150BD29980D9D2
:1001C9007535007536007537168009753500753631
:1001D9000075372075150AD29980BE7535007536B8
:0B01E9000075372A75150BD29980AE07
:1002C70075985053890F438920AB07AA06E4F9F8BC
:1002D7007F807E70FDFC120247EFF404F58D858D5B
:0602E7008BD28ED2AC2286
:030023000201F4E3
:1001F400C0E0C083C082C0D075D000C001C002C0BE
:1002040003309808C298750901859908309925C268
:1002140099D3E5159400748094804018AB35AA36C0
:10022400A937120026F59974012537F537E43536D8
:10023400F5361515D003D002D001D0D0D082D083AA
:03024400D0E032D5
:10011900020199E493A3F8E493A34003F68001F262
:1001290008DFF48029E493A3F85407240CC8C333E7
:10013900C4540F4420C8834004F456800146F6DFB6
:10014900E4800B010204081020408090028BE47EB9
:10015900019360BCA3FF543F30E509541FFEE493AB
:10016900A360010ECF54C025E060A840B8E493A372
:10017900FAE493A3F8E493A3C8C582C8CAC583CA9D
:10018900F0A3C8C582C8CAC583CADFE9DEE780BE55
:0102C6000037
:10002600BB010689828A83E0225002E722BBFE02D8
:09003600E32289828A83E493220B
:10024700C2D5E830E70FB2D5E4C39BFBE49AFAE4E2
:1002570099F9E498F8EC30E717B2D512027D12004D
:100267007BE4C39BFBE49AFAE499F9E498F88003EA
:1002770012007B30D50DE4C39FFFE49EFEE49DFD95
:04028700E49CFC22D5
:10003F0075F008758200EF2FFFEE33FECD33CDCC78
:10004F0033CCC58233C5829BED9AEC99E5829840FB
:10005F000CF582EE9BFEED9AFDEC99FC0FD5F0D6D8
:10006F00E4CEFBE4CDFAE4CCF9A88222B800C1B902
:10007F000059BA002DEC8BF084CFCECDFCE5F0CB40
:10008F00F97818EF2FFFEE33FEED33FDEC33FCEB79
:10009F0033FB10D703994004EB99FB0FD8E5E4F934
:1000AF00FA227818EF2FFFEE33FEED33FDEC33FC21
:1000BF00C933C910D7059BE99A4007EC9BFCE99A15
:1000CF00F90FD8E0E4C9FAE4CCFB2275F010EF2F5A
:1000DF00FFEE33FEED33FDCC33CCC833C810D7075A
:1000EF009BEC9AE899400AED9BFDEC9AFCE899F895
:0E00FF000FD5F0DAE4CDFBE4CCFAE4C8F92228
:00000001FF
