:030000000202F306
:0C02F300787FE4F6D8FD75813B02033AE9
:1005C900020A003A021400000216000002080000A4
:10078200D2AF7F011208117F021207CC1208331276
:10079200090743B0F01207511208C67B007A0079AC
:0607A2000C1206E980EFD5
:03000B00020535B6
:10053500C0E0C0F0C083C082C0D075D000C000C08C
:1005450001C002C003C004C005C006C00785388CC1
:10055500853A8A12012F12060912001E12037F1214
:100565000408D007D006D005D004D003D002D001AE
:0D057500D000D0D0D082D083D0F0D0E032C2
:1007A80020030330021D0509E50970020508B4F4A9
:1007B80012E508B4010DE4F508F5090515E515700D
:0307C80002051413
:0107CB00220B
:03001B0002058259
:10058200C0E0C0F0C083C082C0D075D000C000C03F
:1005920001C002C003C004C005C006C00785398D72
:1005A200853B8B12047A1207A81208E8D007D006FE
:1005B200D005D004D003D002D001D000D0D0D08258
:0705C200D083D0F0D0E0323D
:0305D900011E0000
:1008C600C3E51F9440748094805003C2B322D2B310
:0108D60022FF
:0F08E800051EE51E64327007F51E1206468F1FAF
:0108F70022DE
:10064600E4FFC2A00000C2A20000000030A1010F1A
:10065600E4FEEEFDC39408748094805018D2A00086
:1006660000C2A00000ED64076008EF25E0FF30A19E
:07067600010F0E80DDD2A28E
:01067D00225A
:07000300001409291101217D
:10083300C2A3C2A47F8112000EEF54806010E4FDB6
:0E0843007F8E1208F87BFF7A0079031206B44C
:010851002284
:0A000E00D2A3120852120886C2A302
:0100180022C5
:0F08F8008D18D2A3120852AF18120852C2A322B1
:0606B4008B188A19891A57
:1006BA00D2A37FBE120852E4F51BC3E51B9408744B
:1006CA008094805017AB18AA19A91A851B827583C2
:0E06DA000012023DFF120852051B80DEC2A373
:0106E80022EF
:0606E9008B188A19891A22
:1006EF00D2A37FBF120852E4F51BC3E51B94087415
:1006FF008094805017120886AB18AA19A91A851B67
:0E070F0082758300EF12026A051B80DEC2A312
:01071D0022B9
:100852007E01EE60135F6004D2A58002C2A5D2A41D
:0A086200C2A4EE25E0FE80EAD2A554
:01086C002269
:10088600E4FF7E01EE600F30A5024207D2A4C2A4A7
:06089600EE25E0FE80EEFD
:01089C002239
:1005DC00C103C102C104C100C18104270101010191
:0F05EC00042B010101010121000423FFFFFFFF88
:10075100742B2521F8E6FF74272521F8E66F601632
:10076100EF7005AF211204DD74272521F8E6FF742F
:100771002B2521F8A6070521E52164047002F52146
:010781002255
:1004DD00EFFD7C007004D203803AED64014C70187E
:1004ED00C203D202C20430003E20013B050BE50BD6
:1004FD007002050AC203801CED64024C701BC2031E
:10050D00C202D20430002020011DE50B150B700234
:10051D00150AC203C202C20422ED64034C7008C264
:08052D0003C202C204B2002265
:10047A00E52325E0FFA2B4E4334FF523E52425E084
:10048A00FFA2B5E4334FF524E52525E0FFA2B6E443
:10049A00334FF525E52625E0FFA2B7E4334FF526CD
:1004AA00E4F522C3E52294047480948050247423D2
:1004BA002522F8E6FF7E00F4700974272522F876D3
:1004CA0001800BEF4E700774272522F8E4F6052207
:0204DA0080D1CF
:0104DC0022FD
:1008D700D2A7D2A600000000C2A700000000C2A64F
:0108E70022EE
:10089D00C2A6C2A700000000D2A600000000D2A789
:0508AD00000000002224
:10067E007E80EE601B5F7004C2A78002D2A70000CE
:10068E000000D2A600000000C2A6EEC313FE80E258
:10069E00D2A700000000D2A6A2A79206000000007A
:0506AE00C2A6A206B384
:0106B3002224
:10071E00D2A77E80EE601D00000000D2A620A705A5
:10072E00F452078003EE420700000000C2A6EEC39B
:10073E0013FE80E0D2A700000000D2A60000000049
:02074E00C2A641
:010750002286
:0207EF008F1861
:1007F1001208D77FA012067EAF1812067E1208D704
:0F0801007FA112067E12071E8F1912089DAF19D4
:0108100022C5
:10086D008F1C8D1D1208D77FA012067EAF1C12069D
:09087D007EAF1D12067E02089DEB
:0B0907007F031207EF750A008F0B2220
:100811007E007C037DE812028CC3E49FFFE49EAD61
:1008210007F5388D3AF58C853A8A438901D28CD205
:01083100A91D
:0108320022A3
:1007CC007E007C037DE812028CC3E49FFFE49EADA7
:1007DC0007F5398D3B85388D853A8B438910D28E40
:0207EC00D2AB8E
:0107EE0022E8
:1008B200C0F9A4B0999282F880904079243019123C
:0408C20002780010A8
:0D05FB000830BFBFBFBFBFBFBFBF012F0093
:10012F0020030302023C20010302023CAE0AAF0B84
:10013F007C007D6412029E7C007D0A12029E74BCBC
:10014F002DF58274083CF583E493F537AE0AAF0BB7
:10015F007C007D0A12029E7C007D0A12029E74B200
:10016F002DF58274083CF583E493F536AE0AAF0B98
:10017F007C007D0A12029E74B22DF58274083CF544
:10018F0083E493F5357534FFAE14AF157C037DE82A
:10019F0012029E7C007D0A12029EED4C7005753393
:1001AF00FF800E74B22DF58274083CF583E493F54D
:1001BF0033AE14AF157C007D6412029E7C007D0A65
:1001CF0012029EAA04AB05EB4A701BAE14AF157C4E
:1001DF00037DE812029E7C007D0A12029EED4C7098
:1001EF00057532FF800E74B22BF58274083AF583D1
:1001FF00E493F532AE14AF157C007D0A12029E7C9B
:10020F00007D0A12029E74BC2DF58274083CF583A2
:10021F00E493F531AE14AF157C007D0A12029E7483
:0E022F00B22DF58274083CF583E493F530227D
:10060900300239300136E50EC4540F9008B293F523
:1006190037E50E540F93F5367535BFE50DC4540F04
:1006290093F534E50D540F93F5337532BFE50CC4DA
:0D063900540F93F531E50C540F93F530226A
:10001E0020040302012E20010302012EAC14AD15A3
:10002E00AE0AAF0B12028C8E168F17AE14AF157C64
:10003E00007D6412029E7C007D0A12029EED4C70C1
:10004E00057537FF800E74B22DF58274083CF5836A
:10005E00E493F537AE14AF157C007D0A12029E7C38
:10006E00007D0A12029E74BC2DF58274083CF58345
:10007E00E493F536AE14AF157C007D0A12029E7421
:10008E00B22DF58274083CF583E493F5357534FF93
:10009E00AE16AF177C277D1012029E7C007D0A12D1
:1000AE00029EED4C70057533FF800E74B22DF582F5
:1000BE0074083CF583E493F533AE16AF177C037DDD
:1000CE00E812029E7C007D0A12029E74BC2DF582FF
:1000DE0074083CF583E493F532AE16AF177C007DC1
:1000EE006412029E7C007D0A12029E74B22DF5826D
:1000FE0074083CF583E493F531AE16AF177C007DA2
:10010E000A12029E7C007D0A12029E74B22DF582A6
:10011E0074083CF583E493F530E4F514F515C20448
:01012E0022AE
:10037F00E5154514706D30006AC2017530BF7531D7
:10038F00BF7532BF7533BF7534FFAE0AAF0BFC7D3F
:10039F000A12029E74B22DF58274083CF583E49321
:1003AF00F535AE0AAF0B7C007D0A12029E7C007DF4
:1003BF000A12029E74B22DF58274083CF583E49301
:1003CF00F536AE0AAF0B7C007D6412029E7C007D79
:1003DF000A12029E74BC2DF58274083CF583E493D7
:1003EF00F53722E5154514700F20000C200109ADDB
:0903FF000B7F0312086DD20122EC
:100408007580FFE52FB408005067900419F8282874
:100418007302043102043A02044302044C020455F4
:1004280002045E02046702047085308075907F05BF
:100438002F228531807590BF052F228532807590D7
:10044800DF052F228533807590EF052F22853480B4
:100458007590F7052F228535807590FB052F22852D
:1004680036807590FD052F228537807590FEE4F55E
:010478002F54
:010479002260
:1002FF00020782E493A3F8E493A34003F68001F28C
:10030F0008DFF48029E493A3F85407240CC8C333FF
:10031F00C4540F4420C8834004F456800146F6DFCE
:10032F00E4800B01020408102040809005C9E47E90
:10033F00019360BCA3FF543F30E509541FFEE493C3
:10034F00A360010ECF54C025E060A840B8E493A38A
:10035F00FAE493A3F8E493A3C8C582C8CAC583CAB5
:10036F00F0A3C8C582C8CAC583CADFE9DEE780BE6D
:0106080000F1
:10023D00BB010CE58229F582E5833AF583E0225076
:10024D0006E92582F8E622BBFE06E92582F8E222C0
:0D025D00E58229F582E5833AF583E49322DA
:10026A00F8BB010DE58229F582E5833AF583E8F0CA
:10027A00225006E92582C8F622BBFE05E92582C876
:02028A00F2225E
:10028C00EF8DF0A4A8F0CF8CF0A428CE8DF0A42E86
:02029C00FE2240
:10029E00BC000BBE0029EF8DF084FFADF022E4CC44
:1002AE00F875F008EF2FFFEE33FEEC33FCEE9DEC0D
:1002BE00984005FCEE9DFE0FD5F0E9E4CEFD22ED53
:1002CE00F8F5F0EE8420D21CFEADF075F008EF2F9D
:1002DE00FFED33FD4007985006D5F0F222C398FD8E
:0502EE000FD5F0EA222B
:00000001FF
