:0300000002049760
:0C049700787FE4F6D8FD75816A0204DE6F
:10083200C290D2917580FFD295AF80C295EF20E72A
:01084200F6BF
:010843002292
:10084400AE07120832C290C2918E80C295D295C270
:020854009522EB
:10081E007F381208447F0C1208447F061208447F6A
:04082E000102084477
:10085600ED7004AC078004EF2440FCEC4480FF02FA
:02086600084444
:10086800AE07120832D290C2918E80C295D295C23C
:020878009522C7
:1007D1008B458A468947120856AB45AA46A9471256
:1007E100000E60130547E5477002054614F9120033
:0807F1000EFF12086880E222ED
:050003007F010208442A
:1007F9004A695375616E516900416E52656E596956
:100809004A69616E4A695875002B002D002A002F2C
:05081900003D0030006D
:10065900016701045900000000045D000000000466
:080669006200000000015800CE
:1007A800D2AF7F011205A112081E7BFF7A0779F9E3
:1007B800E4FD7F031207D17BFF7A0879027D01E40B
:0907C800FF1207D112052380FB8A
:07028000FC7B007A00793DD0
:0E0287008F488E478D468C458B498A4A894B9D
:10029500E4F556F557EC33501C1201568F488E473E
:1002A5008D468C45054BE54B7002054A14F9742DB6
:1002B5001200270557E4FFFEFDFCAB48AA47A946F7
:1002C500A845D31201644037E47B0AFAF9F8AF4830
:1002D500AE47AD46AC451206F8AF03744C2556F84B
:1002E500A607AF48AE47AD46AC45E47B0AFAF9F838
:1002F5001206F88F488E478D468C45055680B6E523
:10030500562557F5571556AF56EF3395E0C364801C
:100315009480401E744C2FF8E62430FFAB49054B02
:10032500E54BAA4A7002054A14F9EF120027155643
:0E03350080D5AB49AA4AA94BE4120027AF5766
:010343002297
:0203F5008F3C3B
:1003F700E567640170437F0AFEFDFCAB5CAA5BA95D
:100407005AA859120039A804A905AA06AB07E4FCA3
:10041700FDFEEB253CF55CEE3AF55BED39F55AEC64
:1004270038F559AF5CAE5BAD5A1202808F697B001D
:100437007A00793DE4FDFF804AE567640270477FF3
:100447000AFEFDFCAB60AA5FA95EA85D120039A891
:1004570004A905AA06AB07E4FCFDFEEB253CF56005
:10046700EE3AF55FED39F55EEC38F55DAF60AE5FFE
:10047700AD5E1202808F6AE56904FF7B007A00791E
:0F0487003DE4FD0207D1E5676403700312077DB2
:010496002243
:1006AB008F3CEF640A700B75682B7BFF7A0879120D
:1006BB008031E53C640B700B75682D7BFF7A0879F4
:1006CB00148020E53C640C700B75682A7BFF7A085C
:1006DB007916800FE53C640D701275682F7BFF7ADD
:0D06EB00087918FDAF691207D1756702226A
:10034400E568B42B1AE55C2560F565E55B355FF57A
:1003540064E55A355EF563E559355DF562805AE525
:1003640068B42D1BC3E55C9560F565E55B955FF5A9
:1003740064E55A955EF563E559955DF562803AE565
:1003840068B42A15AF60AE5FAD5EAC5DAB5CAA5BD2
:10039400A95AA8591200398018E568B42F1BAB601C
:1003A400AA5FA95EA85DAF5CAE5BAD5AAC591206FC
:1003B400F88F658E648D638C62756703AF65AE6478
:1003C400AD63AC627B007A00793D1202878F3CE515
:1003D40069256A04FF7BFF7A08791AE4FD1207D1C4
:1003E400C37410953CFF7B007A00793D7D010207C0
:0103F400D137
:10077D00E4F55CF55BF55AF559F560F55FF55EF559
:10078D005DF565F564F563F5627567011200037B30
:0B079D00FF7A08791CE4FDFF0207D181
:020606008F3B28
:10060800E55870061200037558017E00C374809483
:10061800804010D3E53B9409748094805005AF3B2B
:100628000203F5AF3B7E00C3EF940A7480948040C8
:100638000DD3EF940D7480948050030206ABE53B14
:10064800640E700302077DE53B640F7003120344D8
:01065800227F
:1005A100753C00753B10753A0E753900E4FCFDFE93
:1005B100AB3CAA3BA93AA839120039E47BE87A039B
:1005C100F9F81200C48F3C8E3B8D3A8C39C3E49507
:1005D1003CF53CE4953BF53B7401953AF53AE495DD
:1005E10039F539AF3CAE3BAD3AFC780812017A8F50
:1005F10061853C665389F043890185618C85668AF2
:04060100D28CD2A91C
:0106050022D2
:03000B0002073CAD
:10073C00C0E0C0F0C083C082C0D075D000C000C083
:10074C0001C002C003C004C005C006C00785618C8F
:10075C0085668A12018DD007D006D005D004D0034F
:10076C00D002D001D000D0D0D082D083D0F0D0E055
:01077C00324A
:10087A000102030A0405060C0708090B000E0F0DF6
:100671001029010101010101010101010101010132
:100681000101100801010101010101010101010143
:10069100010101010118001019FFFFFFFFFFFFFF1A
:0906A100FFFFFFFFFFFFFFFFFF59
:10052300E4F539C3E539940474809480506FE4F59D
:100533003AC3E53A940474809480505DE53925E02C
:1005430025E02408253AF8E6FFE53925E025E024EF
:1005530029253AF8E66F603DEF6020E53925E0256F
:10056300E0247AF582E43408F583E582253AF582BE
:10057300E43583F583E493FF120606E53925E02588
:10058300E02429253AF8E6FFE53925E025E02408AB
:0D059300253AF8A607053A809805398086BC
:0105A0002238
:10018D00E51825E025E02419F8E625E0FFA2A4E412
:10019D00334FFFE51825E025E02419F8A607E518EB
:1001AD0025E025E0241AF8E625E0FFA2A5E4334F6B
:1001BD00FFE51825E025E0241AF8A607E51825E047
:1001CD0025E0241BF8E625E0FFA2A6E4334FFFE56A
:1001DD001825E025E0241BF8A607E51825E025E005
:1001ED00241CF8E625E0FFA2A7E4334FFFE5182510
:1001FD00E025E0241CF8A607E4FFEFC39404748007
:10020D0094805035E51825E025E024192FF8E654A3
:10021D000FFD7C00700EE51825E025E024292FF850
:10022D00E4F68012ED640F4C700CE51825E025E026
:10023D0024292FF876010F80C10518E51864047084
:10024D0002F518E51814601314601914601C2403CA
:10025D007020D2A0D2A1D2A2C2A322D2A0D2A1C27A
:10026D00A2D2A322D2A0C2A18004C2A0D2A1D2A2A6
:02027D00D2A30A
:01027F00225C
:1004A3000207A8E493A3F8E493A34003F68001F2C0
:1004B30008DFF48029E493A3F85407240CC8C3335A
:1004C300C4540F4420C8834004F456800146F6DF29
:1004D300E4800B0102040810204080900659E47E5A
:1004E300019360BCA3FF543F30E509541FFEE4931E
:1004F300A360010ECF54C025E060A840B8E493A3E5
:10050300FAE493A3F8E493A3C8C582C8CAC583CA0F
:10051300F0A3C8C582C8CAC583CADFE9DEE780BEC7
:0106AA00004F
:10000E00BB010689828A83E0225002E722BBFE02F0
:09001E00E32289828A83E4932223
:10002700BB010689828A83F0225002F722BBFE01B8
:02003700F322B2
:10003900E88FF0A4CC8BF0A42CFCE98EF0A42CFC66
:100049008AF0EDA42CFCEA8EF0A4CDA8F08BF0A4E4
:100059002DCC3825F0FDE98FF0A42CCD35F0FCEB43
:100069008EF0A4FEA9F0EB8FF0A4CFC5F02ECD3908
:0F007900FEE43CFCEAA42DCE35F0FDE43CFC2275
:1000880075F008758200EF2FFFEE33FECD33CDCC2F
:1000980033CCC58233C5829BED9AEC99E5829840B2
:1000A8000CF582EE9BFEED9AFDEC99FC0FD5F0D68F
:1000B800E4CEFBE4CDFAE4CCF9A88222B800C1B9B9
:1000C8000059BA002DEC8BF084CFCECDFCE5F0CBF7
:1000D800F97818EF2FFFEE33FEED33FDEC33FCEB30
:1000E80033FB10D703994004EB99FB0FD8E5E4F9EB
:1000F800FA227818EF2FFFEE33FEED33FDEC33FCD8
:10010800C933C910D7059BE99A4007EC9BFCE99ACB
:10011800F90FD8E0E4C9FAE4CCFB2275F010EF2F10
:10012800FFEE33FEED33FDCC33CCC833C810D70710
:100138009BEC9AE899400AED9BFDEC9AFCE899F84B
:0E0148000FD5F0DAE4CDFBE4CCFAE4C8F922DE
:1006F800C2D5E830E70FB2D5E4C39BFBE49AFAE42D
:1007080099F9E498F8EC30E717B2D512072E1200E1
:10071800C4E4C39BFBE49AFAE499F9E498F88003EB
:100728001200C430D50DE4C39FFFE49EFEE49DFD96
:04073800E49CFC221F
:0E015600C3E49FFFE49EFEE49DFDE49CFC22BA
:10016400EB9FF5F0EA9E42F0E99D42F0EC6480C812
:0601740064809845F022B2
:10017A00E8600FECC313FCED13FDEE13FEEF13FF63
:03018A00D8F12287
:00000001FF
